:0400000080313928EA
:100008007E14803120007F08F1007A08031D132830
:1000180002302300190603190C28FA01FA0A7A0398
:10002800031D342823001908F0007B08563E86007B
:100038008701700881007B08563E86008701010809
:100048009A000130F0007008FB070D307B06031D95
:100058003428FB01FA0101302000D4000030D5001B
:1000680071082000FF007E10090080313B284430D1
:10007800840081308500A0308600003087001A3067
:1000880081316F218031FA01FB0147308400003053
:1000980085001C30813175217E1020008031AF2809
:1000A8002000C001C101C201C301A0308600003098
:1000B800870026308400003085001A30A40016001E
:1000C8001A00A40B63288C01D401D50154085504E7
:1000D80003196A2856302000A4002408F6000D30C1
:1000E800F7000030F8000D30A5002508F20042089E
:1000F80081315E218031263E8131062180317708A9
:100108002000C1007608C0000130C2070030C33D9E
:10011800023042064304031D9328C201C30140086C
:1001280041040319A2284308803AA400803024021D
:10013800031DA0280130420203186E282000400841
:100148004104031DAC280130A2000030A3000800C0
:10015800A201A30108002100C701C8014730860099
:1001680000308700BA308400003085000D30200050
:10017800C40016001A00C40BBD2821008E170E12E9
:100188008E1223001D161E129D171E159F1567300F
:100198009B009E168B170B1721009116683099004B
:1001A800E62810308E000630C6001330C500B13086
:1001B800C400C40BDD28C50BDD28C60BDD280032C2
:1001C80020008E0180315420803120002208230431
:1001D8000319D528803154208031200022032304BC
:1001E800031DE62820308E001030C6003930C500C7
:1001F8001B30C400C40BFE28C50BFE28C60BFE2806
:100208000032E428F9000130F7020030F83B770AA1
:100218000319780A0319412979088600870101081A
:10022800031920297608860087017908840085014A
:100238000008010603193729760886008701010896
:100248002000A000A101A009A109A00A0319A10A80
:1002580079088600870101082007F600210803189D
:10026800210AF700080001302000A0002008F90743
:100278000130A0002008F6070729F601F701080059
:1002880030344134303430343634443446343834FD
:100298004334343435344234033430344134303424
:1002A80030343634443437344134423444344134BD
:1002B80030340334F500F401751C66297208F30024
:1002C8007308F4070310F20D0310F50C7508031DED
:1002D800602974080800FE0012001E00FE0B702939
:0E02E8000034640080010131890B7629003456
:020000040001F9
:04000E00A4C9FFDCA6
:00000001FF
